:020000040800F2
:10000000500D0020290C0008450C0008490C000880
:100010004D0C0008510C0008550C000800000000B1
:10002000000000000000000000000000590C000863
:100030005D0C000800000000610C00089504000839
:10004000690C00086D0C0008DD03000800000000CA
:1000500000000000E3050008A3040008A504000850
:10006000810C000800000000850C0008890C0008C5
:100070008D0C0008000000001F060008950C000809
:10008000990C0008CD04000800000000A10C000835
:10009000A50C0008000000000000000000000000A7
:1000A000000000000000000000000000170500082C
:1000B000AD0C0008B10C0008B50C0008B90C000824
:1000C00080B52C21DFF8002301FB00224FF4002132
:1000D000537E002B07BF937E002B0123DFF8EC1229
:1000E00013700023537000F039F9002002BD10B5E1
:1000F0002C22DFF8D43202FB00330022012902D186
:1001000018B9012010BD9C7E1CB1597005211970D1
:100110000A22114600F022F9002010BD2DE9F84F07
:1001200080460F4600208DF800000026404600F073
:100130007BF98146404600F07CF900F0030A404616
:1001400000F064F904462C20DFF87C1200FB08154F
:10015000F80744BF012028762878052856D8DFE81C
:1001600000F003051F5D91B90020C6E0A00754D43C
:10017000287E002851D0BAF1020F06D1687E60B106
:1001800003202870002068764DE0BAF1000F04D1FA
:10019000A87E10B10420287077E0012600219FE09E
:1001A000A0071FD4287EE8B1BAF1010F1AD15FEA87
:1001B000496017D5E86829690818E860AA6890427C
:1001C0000ED300202870EB69180003D06968404600
:1001D00098470646002EE1D12878002816D183E002
:1001E000012117E019F00F0F17D000202870D5F863
:1001F00028C05FEA0C0005D02346524649464046D7
:10020000E0470646002EC9D1287800286FD1022089
:1002100028700021404600F076F868E0A00766D418
:10022000287E002863D000208DF80000404600F0B2
:100230000FF98346002707E0404600F005F9E9681A
:1002400079186A6888547F1C5F45F5D300F057F829
:10025000E8680BEB0002EA60A86882420DD3002038
:1002600028702B6A180003D06968404698470646F4
:10027000002E93D1287800281FE00221404600F08C
:100280006DF839E0287E002836D0404600F0E0F8CE
:10029000082817D10027404600F0D6F8696978543D
:1002A0007F1C082FF7D300F02AF8696940466A6A74
:1002B0009047060009D1287804281DD14046FFF751
:1002C000FFFE19E000F01BF8012600214046FFF771
:1002D0000EFF11E0A0070AD46878012804D101219B
:1002E0004046FFF704FF02E04046FFF7E9FE9DF8B5
:1002F000000000287FF430AF3046BDE8F28F0121C6
:10030000404600F0AAB8F8B504460D462C202E4908
:1003100000FB04160121204600F0A9F8012D06D0AB
:10032000022D02BF0421204600F074F802E02046AE
:1003300000F0A2F8F56830694719B068874207D91C
:10034000074605E07068295C204600F08BF86D1CBC
:10035000BD42F7D302212046BDE8F44038B504463B
:100360000D461F2000F06DF82C20174900FB0410EB
:100370000021017629462046BDE8344000F04AB805
:1003800070B5144804210160114C2069C8B90120DE
:10039000206100F053F80546680744BF0320207130
:1003A00000262946F0B2FFF7B9FE761C042EF8D3DA
:1003B0006808400000F045F800202061064804214C
:1003C0000160002070BD000000080020020008004D
:1003D0000009002080E100E000E100E0D0E710B477
:1003E00050F8041B81B102681218001D50F8043B3C
:1003F000DC0744BFA9F10104E31852F8044B43F8A9
:10040000044B091FF9D1EBE710BC704700011E49EE
:100410004058704710B500011B4A83588CB22343E3
:1004200023EA1141815010BD174901EB00104068CB
:100430007047154901EB0010806870471348006849
:100440007047124908607047C00111494058704711
:100450000F4901EBC010C06870470D4A02EBC01095
:10046000016170470A4A02EBC01001647047084AF4
:1004700002EBC0100165704700010349425882F049
:100480000402425070470000000101404801014051
:10049000800101406848016811B10168491E01608E
:1004A0007047704710B5654C1021204600F0E0F809
:1004B00001280AD120681021204600F0DFF88021B1
:1004C000204600F0DFF80128F9D110BD38B55C4DA9
:1004D000022000F0DDF801284FF48061284602D1A7
:1004E00000F07FF901E000F086F95648564C21688B
:1004F0000905090D016055490968006881424FF4FA
:100500000061284602D200F06CF901E000F073F9B6
:100510001820A06031BD30B583B0042000F08CF904
:10052000012809D14A48016899B34A490A6822F06A
:1005300002020A6000210160022000F07DF901281A
:1005400026D10021102000F063F900F06AF94FF481
:100550006161B0FBF1F2172A01BF01FB12003C21DF
:10056000B0FBF1F23B2A0CD101FB12003B2808D171
:1005700000F05DF9002000F057F900F058F900F0A4
:1005800080F90121102003B0BDE8304000F040B9EF
:1005900037BD40680028CFD0002001902E4C284D58
:1005A00008E00098401C00900098A042F9D3019800
:1005B000401C019001980528BED24FF4F84128460E
:1005C00000F00FF9002001E00098401C0090009816
:1005D000A042F9D34FF4F841284600F00CF900206E
:1005E000E1E710B5164C4FF48041204600F0F9F8D1
:1005F0001A491B480268520558BF1A4803D50068BB
:10060000400505D51848202282610A2000F0B4F97F
:100610004FF480412046BDE8104000F0ECB810B522
:10062000124C0221204600F0D7F9012803D1606D59
:1006300020F00200606510BD4409002000800340E6
:1006400000000C40400900201880084048090020A4
:100650003809002010ED00E0E09304001C090020A0
:1006600030800240D8080020B00800200000074079
:10067000006C084018BF0120C0B27047426C1143A3
:10068000416470478069084018BF0120C0B27047BC
:1006900003490968084018BF0120C0B27047000034
:1006A000208008402DE9F14F82B0D0F804B0D0F896
:1006B00008C0D0F80CE004694569D0F818A0C069FA
:1006C000002201234FF003084FF001190E88002E7D
:1006D0004FE0F70746D52BEA030B8F78974047EAA0
:1006E0000B0B57008DF805702CEA080700970F7A5E
:1006F0009DF905C007FA0CFC009F4CEA070C2EEA96
:10070000030E8F7A974047EA0E0E02F110078DF81C
:10071000047024EA09040094CF789DF9044007FA94
:1007200004F4009F3C430F7997403C4325EA0905B8
:1007300000954F799DF9045007FA05F5009F3D4358
:100740008F7997403D432AEA080700974F7A9DF931
:1007500005A007FA0AFA009F4AEA070A9843CF79E8
:10076000974038435B004FEA88084FEA4909521C1A
:100770007608AED10299254A91420CBF1F21002173
:100780002BEA0102029B5A602CEA0102029B9A604A
:100790002EEA0102029BDA6024EA0102029B1A613E
:1007A00025EA0102029B5A612AEA0102029B9A6130
:1007B00088430299C861BDE8F78F4FF6FF71018049
:1007C00000218170C170017141718171C17101722B
:1007D0004172817270470068084018BF0120C0B2A2
:1007E00070470268094B98420CBF1F2300239A43AD
:1007F000114301607047054A90420CBF1F2200223E
:100800000368114323EA01010160704700000B40B7
:100810000E4A0029116814BF084321EA0000106045
:1008200070470948006870470749086070470848E2
:1008300000680028FBD1704704490968084018BFC8
:100840000120C0B27047000040800D4050800D4034
:10085000180AB04310F0030F01D000207047642144
:10086000B0FBF1F201FB120109B1012070474FF416
:10087000C871B0FBF1F201FB1200401E8041C00FB5
:10088000704770B5DFF88840257860780646012803
:1008900018BF032E08D0052E18BF072E04D0082E2F
:1008A0001CBF0A2E0C2E09D11F2D1BD30C2E1DD1BF
:1008B000012601256088401C608019E0042E18BFC5
:1008C000062E03D0092E18BF0B2E02D11E2D0DD2DD
:1008D00008E0022E0CD11C2D04D305D16088FFF74F
:1008E000B9FF18B16D1C03E01D2D01D1761C012547
:1008F000667025706088617800EB0140217800EB1C
:100900000160DFF810100860BDE87040FFF78FBF8E
:100910004C09002004800D4010B582680368B2F1D4
:10092000406F05D08469641E920E04FA02F2D31857
:100930000B6042684369042B0EBF0C32C36813F18D
:10094000804F05D08469641E9B0F04FA03F39A1844
:100950004A60C26803691A4383681A43436A1A43A8
:10096000036A1A43C3691A4383695B1E42EA03128E
:1009700040691043886010BD70B506460C46144DA2
:1009800014496960206818B101EB0611FFF7C4FF34
:10099000606820B1A96801EB0611FFF7BDFFA068F0
:1009A00040F0010028600120B040617B01290CBFAC
:1009B0006861A86128626862A17B00290CBF286376
:1009C000E862217B012901D1686370BDA86370BD15
:1009D0000480024000040020426D806D10400840F9
:1009E00018BF0120C0B2704738B5304C01212046F5
:1009F00000F06CF82E4D2846FFF7DFFE29462D4803
:100A0000FFF750FE29462C48FFF74CFE29462B489D
:100A1000FFF748FE29462A48FFF744FE29462948A1
:100A2000FFF740FE29462848FFF73CFE00212046FC
:100A3000BDE8344000F04AB8FFF7D6FF01214FF07F
:100A4000C07000F043F81A4C4FF4F846268000209E
:100A5000A07020720120A0726072184D21462846B5
:100A6000FFF720FE26800120A070002020720120C8
:100A7000A0726072124E21463046FFF713FE4FF40B
:100A80008064274639462846FFF7A5FE00283946E8
:100A9000304602D1FFF7A5FE01E0FFF7ACFEB7F547
:100AA000804F38BF7F00EDD3EBE700000000E0236C
:100AB0002C09002000800A4000000B4000800B4001
:100AC00000000C4000800C4000800E40044A0029C9
:100AD000116814BF084321EA00001060704700004D
:100AE0001C0002401E481F4982680A468368DB07D3
:100AF00048BF1D4A83685B0704D50368C3F303231B
:100B00005B1C5A4383681B0A13F003030ED0022BAD
:100B100007D009D28068C0F30310401CB2FBF0F18B
:100B200004E04FF4004101E049F640410F48016004
:100B300070470F484FF00061016009480D4981611D
:100B40008168002181600168002101604168002105
:100B50004160C1680021C160016900210161C1E7F4
:100B60000400024000127A0000093D00000000204D
:100B700008ED00E01000000810B50749794418316D
:100B8000064C7C44163404E0081D0A685118884756
:100B90000146A142F8D110BD2C0000004C0000001D
:100BA00050F8041B61B150F8042BD30744BFA9F1DE
:100BB00001039A18002342F8043B091FFAD1EFE71A
:100BC00070470000DDFFFFFF50050000000400201B
:100BD000000000000BF8FFFF04000000E000000030
:100BE000000000200000000000F009F8002801D0FB
:100BF000FFF7C2FF0020FFF71FFF00F002F80120FF
:100C0000704700F001B800000746384600F002F8CF
:100C1000FBE70000C046C046024A11001820ABBEE8
:100C2000FBE700BF2600020001488047014800475B
:100C3000330B0008390C0008C046C046C046C04609
:100C4000FFF7D2FFFFF7FEBFFFF7FEBFFFF7FEBFC4
:100C5000FFF7FEBFFFF7FEBFFFF7FEBFFFF7FEBFC8
:100C6000FFF7FEBFFFF716BCFFF7FEBFFFF7FEBFA3
:100C7000FFF7B4BBFFF7B5BCFFF713BCFFF712BC1F
:100C8000FFF7FEBFFFF7FEBFFFF7FEBFFFF7FEBF98
:100C9000FFF7C5BCFFF7FEBFFFF7FEBFFFF716BCAF
:100CA000FFF7FEBFFFF7FEBFFFF735BCFFF7FEBF44
:100CB000FFF7FEBFFFF7FEBFFFF7FEBF00127A008F
:0400000508000C39AA
:00000001FF
